:020000040800F2
:10000000FFFF022055310008A5310008A531000886
:10001000A5310008A5310008A53100080000000046
:10002000000000000000000000000000A5310008F2
:10003000A531000800000000A5310008A531000826
:10004000A5310008A5310008A5310008A531000838
:10005000A5310008A5310008A5310008A531000828
:10006000A5310008A5310008A5310008A531000818
:10007000A5310008A5310008A5310008A531000808
:10008000A5310008A5310008A5310008A5310008F8
:10009000A5310008A5310008A5310008A5310008E8
:1000A000A5310008A5310008A5310008A5310008D8
:1000B000A5310008A5310008A5310008A5310008C8
:1000C000A5310008A5310008A5310008A5310008B8
:1000D000A5310008A5310008A5310008A5310008A8
:1000E000A5310008A5310008A5310008A531000898
:1000F000A5310008A5310008A5310008A531000888
:10010000A5310008A5310008A5310008A531000877
:10011000A5310008DD1E0008A5310008A531000842
:10012000A5310008A5310008A5310008A531000857
:10013000A5310008A5310008A5310008A531000847
:10014000A5310008A5310008A5310008A531000837
:10015000A5310008A5310008A5310008A531000827
:10016000A5310008A5310008A5310008A531000817
:10017000A5310008A5310008A531000800000000E5
:10018000A5310008A5310008A5310008A5310008F7
:10019000A5310008A5310008A5310008A5310008E7
:0C01A000A5310008A5310008A5310008B9
:1001AC0010B5054C237833B9044B13B10448AFF3A5
:1001BC0000800123237010BD4004002000000000CB
:1001CC00A8310008084B10B51BB108480849AFF31B
:1001DC0000800848036803B910BD074B002BFBD007
:1001EC00BDE81040184700BF00000000A83100080F
:1001FC0044040020400400200000000080B487B0BC
:10020C0000AF78607B6803F13F4303F57E03002B5E
:10021C0001DA03F2FF339B127B6110490F4B1B6910
:10022C0001207A6900FA02F2D24313400B610B49A8
:10023C000A4B1B6B01207A6900FA02F2134343F458
:10024C0080130B63054B1B693B61044B1B6BFB6001
:10025C001C37BD465DF8047B704700BF0038024078
:10026C00B0B49DB000AF3D4B07F114041D460FCD4B
:10027C000FC40FCD0FC40FCD0FC495E80F0084E849
:10028C000F00374B3C1D0FCB84E80F00354B9B68A0
:10029C001B0903F00F039B0007F17002134453F882
:1002AC005C3CBB662F4B5B681B0C03F003039B0091
:1002BC0007F17002134453F86C3C7B66294B5B6866
:1002CC0003F03F033B66274B5B689B09C3F30803B2
:1002DC00FB65244B9B689B0803F00303BB65BB6D5C
:1002EC00002B05D1204ABB6E92FBF3F3FB662EE08C
:1002FC00BB6D012B05D11D4ABB6E92FBF3F3FB6664
:10030C0025E0184B5B689B0D03F001037B657B6D4F
:10031C00002B0ED0FB6D144A02FB03F23B6E796E80
:10032C0001FB03F3B96E01FB03F392FBF3F3FB66E2
:10033C000DE03B6E7A6E02FB03F3BA6E02FB03F325
:10034C000A4A92FBF3F3FA6D02FB03F3FB66FB6EB6
:10035C0018467437BD46B0BC704700BFC0310008AA
:10036C0000320008003802400024F40000127A0029
:10037C0080B483B000AF786018460C37BD465DF88A
:10038C00047B704780B584B000AFF860B9607A60C8
:10039C003B60FB6800221A60BB6800221A607B6815
:1003AC0000221A603B6800221A60022000F0A2F9B9
:1003BC000346002B02D0FB6801221A60012000F0DA
:1003CC0099F90346002B02D0BB6801221A60002069
:1003DC0000F090F90346002B02D07B6801221A60D2
:1003EC00032000F087F90346002B02D03B68012262
:1003FC001A601037BD4680BD80B582B000AF0220B8
:10040C0000F078F90346002B0CD02B48002100F0AB
:10041C005DF90346002B05D0284B1B687B60274BEE
:10042C005B687B60012000F065F90346002B0CD063
:10043C002148002100F04AF90346002B05D01F4B40
:10044C001B687B601D4B5B687B60002000F052F9E1
:10045C000346002B0CD01A48082100F037F903464C
:10046C00002B05D0154B1B687B60144B5B687B60C5
:10047C00032000F03FF90346002B06D00E48002164
:10048C0000F024F90346002B0CD1032000F032F9C4
:10049C000346002B0CD00A48052100F017F903463F
:1004AC00002B05D0054B1B687B60044B5B687B60A5
:1004BC000837BD4680BD00BF1450004000500040BE
:1004CC000C50004080B582B000AF022000F012F951
:1004DC000346002B11D1012000F00CF90346002B30
:1004EC000BD1002000F006F90346002B05D10320A8
:1004FC0000F000F90346002B05D0044B1B687B6011
:10050C00024B5B687B600837BD4680BD00500040E5
:10051C0080B400AF034B00221A60BD465DF8047B2B
:10052C00704700BF0050004080B487B000AFF86047
:10053C00B9607A603B60FB68DB683A6A12021A4366
:10054C00FB68DA60FB68DB68BA68D2011A43FB68A7
:10055C00DA60FB68DB687A6892011A43FB68DA6040
:10056C00FB68DB683A6852011A43FB68DA60FB6887
:10057C005A697B6A1A43FB685A61FB68DB687B61CA
:10058C00FB685B693B611C37BD465DF8047B7047BB
:10059C0080B588B000AFF860B9607A603B6000F05D
:1005AC0051F8FB68DA687B689B021A43FB68DA60D7
:1005BC007B68002B03D0FB68DA68FB68DA60FB68A9
:1005CC00DA68BB6A1B031A43FB68DA60FB68DB68FA
:1005DC0043F40052FB68DA60FB68DB6843F004020A
:1005EC00FB68DA60FB68DB6843F00802FB68DA60E2
:1005FC00FB681B6923F44052FB681A61FB681A699B
:10060C003B681B031A43FB681A61FB685A69FB6859
:10061C005A6100F01DFE0346B868194601F0A6F8B1
:10062C000246FB689A60FB68DB68FB61FB681B6930
:10063C00BB61FB685B697B61FB689B683B61203736
:10064C00BD4680BD80B483B000AF084B7B607B6837
:10065C001B6C43F480127B681A647B681A6A7B6893
:10066C001A620C37BD465DF8047B704700380240B7
:10067C0080B582B000AF0346FB7100BF072000F0CD
:10068C0039F80346002BF9D0024AFB79536008373E
:10069C00BD4680BD0050004080B582B000AF0A4B13
:1006AC001B687B6000BF052000F024F80346002B7C
:1006BC00F9D0054B5B683B60034B5B68DBB21846BB
:1006CC000837BD4680BD00BF0050004080B485B0E7
:1006DC0000AF786039607B681B68FB60FA683B6828
:1006EC0022FA03F303F0010318461437BD465DF8F4
:1006FC00047B704780B485B000AF7860074B1B68F3
:10070C00FB60064B1A687B6822FA03F303F00103C3
:10071C0018461437BD465DF8047B70470050004006
:10072C0080B400AF044A044BDB6843F00103D36090
:10073C00BD465DF8047B70470050004080B400AFAC
:10074C00034A034BDB68D360BD465DF8047B7047FE
:10075C000050004080B400AF1A4A1A4B1B6843F09B
:10076C0081031360174B00229A60164A154B1B68C5
:10077C0023F0A16323F480331360124B00225A60E0
:10078C001049104B5A68104B13434B600D4B002211
:10079C00C3F884200B4A0B4BD3F8843043F000533E
:1007AC0043F44053C2F88430064A064B1B6823F4CA
:1007BC0080231360034B0022DA60BD465DF8047B96
:1007CC00704700BF003802401030000480B598B06C
:1007DC0000AF78600023FB657B681B6803F00103A6
:1007EC00002B6AD0A64B9B6803F00C03042B0BD098
:1007FC00A34B9B6803F00C03082B12D1A04B5B6836
:10080C0003F48003002B0CD09D4B1B6803F40033C6
:10081C00002B05D07B685B68002B01D1012324E2FF
:10082C004BE0984B00221A7001F098FDF8650AE035
:10083C0001F094FD0246FB6DD31A41F288329342CB
:10084C0001D9032311E28E4B1B6803F40033002BF8
:10085C00EED18C4A7B685B68DBB213707B685B689B
:10086C00002B15D001F07AFDF8650AE001F076FD59
:10087C000246FB6DD31A41F28832934201D903230D
:10088C00F3E17F4B1B6803F40033002BEED014E034
:10089C0001F064FDF8650AE001F060FD0246FB6DB5
:1008AC00D31A41F28832934201D90323DDE1744B10
:1008BC001B6803F40033002BEED17B681B6803F03C
:1008CC000203002B7FD06E4B9B6803F00C03002BB4
:1008DC000BD06B4B9B6803F00C03082B2AD1684B95
:1008EC005B6803F48003002B24D1654B1B6803F079
:1008FC000203002B05D07B68DB68012B01D00123A0
:10090C00B3E15F485E4B1B6823F0F8027B681B6900
:10091C00F821B965B96D91FAA1F17965796D3965EF
:10092C00396DB1FA81F1F964F96CC9B28B4013439A
:10093C00036048E07B68DB68002B2ED0524B012211
:10094C001A6001F00BFDF86508E001F007FD0246A6
:10095C00FB6DD31A642B01D9032386E1484B1B682A
:10096C0003F00203002BF0D04548454B1B6823F0E5
:10097C00F8027B681B69F821B964B96C91FAA1F192
:10098C007964796C3964396CB1FA81F1F963F96B7A
:10099C00C9B28B401343036015E03B4B00221A6035
:1009AC0001F0DCFCF86508E001F0D8FC0246FB6DB8
:1009BC00D31A642B01D9032357E1314B1B6803F085
:1009CC000203002BF0D17B681B6803F00803002B9B
:1009DC0030D07B685B69002B16D02C4B01221A603F
:1009EC0001F0BCFCF86508E001F0B8FC0246FB6DB8
:1009FC00D31A642B01D9032337E1214B5B6F03F02E
:100A0C000203002BF0D015E0204B00221A6001F0FD
:100A1C00A5FCF86508E001F0A1FC0246FB6DD31AB9
:100A2C00642B01D9032320E1154B5B6F03F0020308
:100A3C00002BF0D17B681B6803F00403002B7BD0E8
:100A4C000F4A0F4B1B6C43F0805313640C4B1B6C05
:100A5C0003F08053BB60BB680D4A0D4B1B6843F41D
:100A6C008073136001F07AFCF86513E001F076FCFA
:100A7C000246FB6DD31A642B0CD90323F5E000BF9F
:100A8C00003802400238024000004742800E4742C4
:100A9C0000700040774B1B6803F48073002BE5D08B
:100AAC00754B00221A7001F059FCF8650AE001F050
:100ABC0055FC0246FB6DD31A41F28832934201D9A0
:100ACC000323D2E06D4B1B6F03F00203002BEED11E
:100ADC00694A7B689B68DBB213707B689B68002B50
:100AEC0015D001F03BFCF8650AE001F037FC02463A
:100AFC00FB6DD31A41F28832934201D90323B4E03F
:100B0C005E4B1B6F03F00203002BEED014E001F0E0
:100B1C0025FCF8650AE001F021FC0246FB6DD31AB6
:100B2C0041F28832934201D903239EE0534B1B6F51
:100B3C0003F00203002BEED17B689B69002B00F0C5
:100B4C0093804E4B9B6803F00C03082B00F08A80BB
:100B5C007B689B69022B6ED1494B00221A6001F015
:100B6C00FDFBF86508E001F0F9FB0246FB6DD31ABA
:100B7C00642B01D9032378E0404B1B6803F000730E
:100B8C00002BF0D13D487B68DA697B681B6A1A43FD
:100B9C007B685B6A47F6C071B963B96B91FAA1F1D6
:100BAC007963796B3963396BB1FA81F1F962F96A5E
:100BBC00C9B28B401A437B689B6A5B08013B4FF4BC
:100BCC004031B962B96A91FAA1F17962796A3962F4
:100BDC00396AB1FA81F1F961F969C9B28B401A43EA
:100BEC007B68DB6A4FF07061B961B96991FAA1F168
:100BFC007961796939613969B1FA81F1F960F9681A
:100C0C00C9B28B40134343601D4B01221A6001F0A3
:100C1C00A5FBF86508E001F0A1FB0246FB6DD31AB9
:100C2C00642B01D9032320E0144B1B6803F00073E1
:100C3C00002BF0D018E0124B00221A6001F08EFB52
:100C4C00F86508E001F08AFB0246FB6DD31A642BB1
:100C5C0001D9032309E0094B1B6803F00073002B37
:100C6C00F0D101E0012300E0002318466037BD46B7
:100C7C0080BD00BF00700040703802400038024058
:100C8C006000474280B584B000AF786039600023C3
:100C9C00FB60A24B1B6803F00F023B689A4280F08A
:100CAC00A8809E4B3A68D2B21A709C4B1B6803F01A
:100CBC000F023B689A4201D0012369E17B681B68F3
:100CCC0003F00203002B08D09549954B9B6823F049
:100CDC00F0027B689B6813438B607B681B6803F096
:100CEC000103002B00F031817B685B68012B07D17D
:100CFC008B4B1B6803F40033002B1AD1012347E103
:100D0C007B685B68022B03D07B685B68032B08D184
:100D1C00834B1B6803F00073002B01D1012337E1D7
:100D2C0007E07F4B1B6803F00203002B01D101236A
:100D3C002EE17B497A4B9B6823F003027B685B684E
:100D4C0013438B6001F00AFBF8607B685B68012B36
:100D5C0012D10AE001F002FB0246FB68D31A41F201
:100D6C008832934201D9032312E16D4B9B6803F047
:100D7C000C03042BEED1E8E07B685B68022B12D1EC
:100D8C000AE001F0EBFA0246FB68D31A41F2883212
:100D9C00934201D90323FBE0614B9B6803F00C03E6
:100DAC00082BEED1D1E07B685B68032B0ED10AE0F7
:100DBC0001F0D4FA0246FB68D31A41F2883293420E
:100DCC0001D90323E4E0564B9B68F1E70AE001F0FC
:100DDC00C5FA0246FB68D31A41F28832934201D914
:100DEC000323D5E04E4B9B6803F00C03002BEED194
:100DFC00ABE07B681B6803F00203002B08D048496A
:100E0C00474B9B6823F0F0027B689B6813438B6015
:100E1C007B681B6803F00103002B00F089807B6862
:100E2C005B68012B07D13E4B1B6803F40033002B8E
:100E3C001AD10123ACE07B685B68022B03D07B6882
:100E4C005B68032B08D1364B1B6803F00073002B37
:100E5C0001D101239CE007E0314B1B6803F0020336
:100E6C00002B01D1012393E02D492D4B9B6823F0DE
:100E7C0003027B685B6813438B6001F06FFAF860C8
:100E8C007B685B68012B12D10AE001F067FA02461D
:100E9C00FB68D31A41F28832934201D9032377E0DD
:100EAC001F4B9B6803F00C03042BEED140E07B68D6
:100EBC005B68022B12D10AE001F050FA0246FB6883
:100ECC00D31A41F28832934201D9032360E0144BC8
:100EDC009B6803F00C03082BEED129E07B685B6860
:100EEC00032B0ED10AE001F039FA0246FB68D31A43
:100EFC0041F28832934201D9032349E0084B9B68A5
:100F0C00F1E70FE001F02AFA0246FB68D31A41F22E
:100F1C008832934206D903233AE000BF003C0240DA
:100F2C00003802401C4B9B6803F00C03002BE9D1EA
:100F3C001A4B3A68D2B21A70184B1B6803F00F02A6
:100F4C003B689A4201D0012322E07B681B6803F0C6
:100F5C000403002B08D010490F4B9B6823F4E0527C
:100F6C007B68DB6813438B607B681B6803F00803AA
:100F7C00002B09D00849084B9B6823F460427B681E
:100F8C001B69DB0013438B600F2001F0BDF90023BC
:100F9C0018461037BD4680BD00380240003C024068
:100FAC0080B58CB000AFF860B9607A60FB68002B3C
:100FBC0027D1294A284B1B6B43F001031363264BA3
:100FCC001B6B03F00103BB61BB694FF48073FB61C6
:100FDC0002233B620323BB6200237B620023FB6280
:100FEC0007F11C031D48194600F028FC1A481A4B3F
:100FFC009B6823F0EC62B9687B680B4313438360F6
:10100C0027E0154A144B1B6B43F004031363124B7C
:10101C001B6B03F004037B617B694FF40073FB6172
:10102C0002233B620323BB6200237B620023FB622F
:10103C0007F11C030A48194600F000FC0648064B51
:10104C009B6823F078427B68D900BB680B43134341
:10105C0083603037BD4680BD00380240000002403E
:10106C000008024080B400AF034B01221A60BD4659
:10107C005DF8047B704700BF4C00474280B400AF62
:10108C00034B00221A60BD465DF8047B704700BF1D
:10109C004C00474280B491B000AF00237B63002327
:1010AC00FB6300233B630023BB633D4B9B6803F056
:1010BC000C03042B06D0082B07D0002B66D1394B20
:1010CC00BB6366E0384BBB6363E0354B5B6803F096
:1010DC003F037B63324B5B6803F48003002B1CD013
:1010EC00314A7B6BB2FBF3F22D4B596847F6C07358
:1010FC000B4047F6C071F962F96A91FAA1F1B96235
:10110C00B96A7962796AB1FA81F13962396AC9B21C
:10111C00CB4003FB02F3FB631BE0224A7B6BB2FB6D
:10112C00F3F21F4B596847F6C0730B4047F6C0717A
:10113C00F961F96991FAA1F1B961B96979617969D2
:10114C00B1FA81F139613969C9B2CB4003FB02F3C1
:10115C00FB63134B5B6803F440334FF44032FA608B
:10116C00FA6892FAA2F2BA60BA687A607A68B2FA4D
:10117C0082F23A603A68D2B2D34001335B003B63EF
:10118C00FA6B3B6BB2FBF3F3BB6302E0054BBB6347
:10119C0000BFBB6B18464437BD465DF8047B7047F7
:1011AC00003802400024F40000127A0080B584B0AC
:1011BC0000AFFFF76FFF01460F4B9B6803F0F00386
:1011CC00F022FA60FA6892FAA2F2BA60BA687A600F
:1011DC007A68B2FA82F23A603A68D2B2D340074ADD
:1011EC00D35C21FA03F3064A1360054B1B681846BF
:1011FC001037BD4680BD00BF0038024010320008D9
:10120C000000002080B584B000AFFFF7CFFF01468F
:10121C000D4B9B6803F4E0534FF4E052FA60FA680C
:10122C0092FAA2F2BA60BA687A607A68B2FA82F27A
:10123C003A603A68D2B2D340044AD35C21FA03F341
:10124C0018461037BD4680BD0038024010320008E9
:10125C0080B584B000AFFFF7A9FF01460D4B9B682A
:10126C0003F460434FF46042FA60FA6892FAA2F217
:10127C00BA60BA687A607A68B2FA82F23A603A680E
:10128C00D2B2D340044AD35C21FA03F31846103788
:10129C00BD4680BD003802401032000880B493B0C7
:1012AC0000AF78607B680F221A60624B1B6803F4F6
:1012BC008023002B03D07B6805225A600CE05D4B29
:1012CC001B6803F48033002B03D07B6801225A6027
:1012DC0002E07B6800225A60564B1B6803F0010346
:1012EC00002B03D07B680122DA6002E07B680022CD
:1012FC00DA60504B1B6803F0F803F8227A647A6CBE
:10130C0092FAA2F23A643A6CFA63FA6BB2FA82F28B
:10131C00BA63BA6BD2B223FA02F27B681A61454BFC
:10132C001B6F03F00403002B03D07B6805229A602B
:10133C000CE0404B1B6F03F00103002B03D07B68C8
:10134C0001229A6002E07B6800229A60394B5B6F45
:10135C0003F00103002B03D07B6801225A6102E0E9
:10136C007B6800225A61334B1B6803F08073002B9F
:10137C0003D07B6802229A6102E07B6801229A61A9
:10138C002C4B5B6803F480027B68DA61294B5B6849
:10139C0003F03F027B681A62264B5A6847F6C0730B
:1013AC00134047F6C0727A637A6B92FAA2F23A63F0
:1013BC003A6BFA62FA6AB2FA82F2BA62BA6AD2B2D8
:1013CC0023FA02F27B685A621A4B5B6803F44033CF
:1013DC0003F580335B004FF440327A627A6A92FAFA
:1013EC00A2F23A623A6AFA61FA69B2FA82F2BA6124
:1013FC00BA69D2B223FA02F27B689A620D4B5B682F
:10140C0003F070634FF070627A617A6992FAA2F21B
:10141C003A613A69FA60FA68B2FA82F2BA60BA686A
:10142C00D2B223FA02F27B68DA624C37BD465DF821
:10143C00047B70470038024080B483B000AF786002
:10144C0039607B680F221A60114B9B6803F0030212
:10145C007B685A600E4B9B6803F0F0027B689A60C5
:10146C000B4B9B6803F4E0527B68DA60084B9B687B
:10147C0003F46043DA087B681A61064B1B6803F0BF
:10148C000F023B681A600C37BD465DF8047B704751
:10149C0000380240003C024080B500AF054BDB68D1
:1014AC0003F08003002B04D000F008F8024B8022DC
:1014BC001A7080BD003802400E38024080B400AF74
:1014CC00BD465DF8047B704780B483B000AF786094
:1014DC0039607B685B6901213A6801FA02F2D243F8
:1014EC001A407B685A617B685B6901213A6801FA92
:1014FC0002F21A437B685A6118460C37BD465DF8F8
:10150C00047B704780B483B000AF786039607B682F
:10151C005B6901213A6801FA02F2D2431A407B68F6
:10152C005A617B685A697B685A6118460C37BD460C
:10153C005DF8047B704700BF80B483B000AF786067
:10154C0039603B681033012202FA03F31A467B68B8
:10155C009A6118460C37BD465DF8047B704700BF96
:10156C0080B483B000AF7860396001223B6802FA26
:10157C0003F31A467B689A6118460C37BD465DF832
:10158C00047B704780B584B000AFF860B9607A60B6
:10159C007868FEF733FE7B681B68BA68520003213B
:1015AC0001FA02F2D2431A407B681A607B681B680E
:1015BC00BA685200F96801FA02F21A437B681A60A1
:1015CC007B68DB68BA685200032101FA02F2D2434D
:1015DC001A407B68DA607B68DA687B68DA601846E8
:1015EC001037BD4680BD00BF80B584B000AFF86039
:1015FC00B9607A607868FEF701FE7B681B68BA6890
:10160C005200032101FA02F2D2431A407B681A609D
:10161C007B681B68BA685200F96801FA02F21A4337
:10162C007B681A607B685B680321BA6801FA02F276
:10163C00D2431A407B685A607B685A687B685A6050
:10164C007B689B68BA685200032101FA02F2D2430C
:10165C001A407B689A607B689B68BA6852000221CA
:10166C0001FA02F21A437B689A6018461037BD469D
:10167C0080BD00BF80B588B000AFF860B9607A60FB
:10168C00B868FEF7BBFDBB681B68FA685200032103
:10169C0001FA02F2D2431A40BB681A60BB681B689D
:1016AC00FA685200022101FA02F21A43BB681A606E
:1016BC00FB68072B25DDBB685A6AF968224B0B4087
:1016CC00002B03DA013B63F0070301339B000F216E
:1016DC0001FA03F3DB431A40BB685A62BB685A6ACF
:1016EC00F968194B0B40002B03DA013B63F007033D
:1016FC0001339B00796801FA03F31A43BB685A6201
:10170C0014E0BB681B6AFA6892000F2101FA02F21E
:10171C00D2431A40BB681A62BB681B6AFA68920013
:10172C00796801FA02F21A43BB681A62BB681B683B
:10173C00FB61BB681B6ABB61BB685B6A7B6118465B
:10174C002037BD4680BD00BF0700008080B485B047
:10175C0000AFC7E900013B6803F00103FB60FB68C5
:10176C0018461437BD465DF8047B704790B589B0B8
:10177C0000AF78603960386801F082FA0446786806
:10178C0001F07EFA034618464FF0824101F0CCFA84
:10179C0003462046194601F07BFB0346FB61F869C2
:1017AC0001F012FC0346BB61B86901F065FA03460F
:1017BC00F869194601F0AEF9034618464FF082411C
:1017CC0001F0B2FA03467B61786900F00DF83861DC
:1017DC00BB691A013B6913439BB2FB60FB6818465B
:1017EC002437BD4690BD00BF80B586B000AF786091
:1017FC00786801F0E9FB03467B617A6913469B002C
:10180C0013445B003B6178680B4901F08DFA034689
:10181C00184601F0D9FB0346FB60FA683B69D31A02
:10182C00BB60BB68042B02D97B69013300E07B6988
:10183C0018461837BD4680BD0000204180B489B0E1
:10184C0000AF7860396000237B6100233B6100238B
:10185C00BB610023FB6171E1FB69012202FA03F316
:10186C007B613B681A687B6913403B613A697B6911
:10187C009A4240F060813B685B68022B03D03B6866
:10188C005B68122B22D1FB69DA087B68083253F8AB
:10189C002230BB61FB6903F007039B001A460F2340
:1018AC009340DB43BA691340BB613B681B69FA691F
:1018BC0002F0070292009340BA691343BB61FB69C3
:1018CC00DA087B680832B96943F822107B681B6818
:1018DC00BB61FB695B001A4603239340DB43BA6987
:1018EC001340BB613B685B6803F00303FA69520069
:1018FC009340BA691343BB617B68BA691A603B6851
:10190C005B68012B0BD03B685B68022B07D03B68F4
:10191C005B68112B03D03B685B68122B2FD17B6863
:10192C009B68BB61FB695B001A4603239340DB4356
:10193C00BA691340BB613B68DB68FA69520093409B
:10194C00BA691343BB617B68BA699A607B685B6850
:10195C00BB61FB69012202FA03F3DB43BA69134052
:10196C00BB613B685B6803F010031A09FB6902FA60
:10197C0003F3BA691343BB617B68BA695A607B682D
:10198C00DB68BB61FB695B001A4603239340DB43B6
:10199C00BA691340BB613B689B68FA69520093407B
:1019AC00BA691343BB617B68BA69DA603B685B68F0
:1019BC0003F08053002B00F0BE80654A644B5B6CD7
:1019CC0043F480435364624B5B6C03F48043FB60D1
:1019DC00FB68604AFB699B08023352F82330BB61F9
:1019EC00FB6903F003039B001A460F239340DB4370
:1019FC00BA691340BB617B68574A934237D07B6806
:101A0C00564A934231D07B68554A93422BD07B681F
:101A1C00544A934225D07B68534A93421FD07B682B
:101A2C00524A934219D07B68514A934213D07B6837
:101A3C00504A93420DD07B684F4A934207D07B6843
:101A4C004E4A934201D1092312E00A2310E00823E5
:101A5C000EE007230CE006230AE0052308E004232C
:101A6C0006E0032304E0022302E0012300E000234C
:101A7C00FA6902F0030292009340BA691343BB6106
:101A8C003449FB699B080233BA6941F823203C4B6B
:101A9C001B68BB613B69DB43BA691340BB613B68A4
:101AAC005B6803F48033002B03D0BA693B691343A2
:101ABC00BB61334ABB691360314B5B68BB613B69EB
:101ACC00DB43BA691340BB613B685B6803F40033CA
:101ADC00002B03D0BA693B691343BB61284ABB692D
:101AEC005360274B9B68BB613B69DB43BA6913406E
:101AFC00BB613B685B6803F48013002B03D0BA69AD
:101B0C003B691343BB611E4ABB6993601C4BDB688A
:101B1C00BB613B69DB43BA691340BB613B685B68E3
:101B2C0003F40013002B03D0BA693B691343BB6168
:101B3C00134ABB69D360FB690133FB61FB690F2B53
:101B4C007FF68AAE2437BD465DF8047B704700BF34
:101B5C0000380240003801400000024000040240FE
:101B6C0000080240000C0240001002400014024029
:101B7C0000180240001C02400020024000240240D9
:101B8C00003C014080B487B000AF7860396000231E
:101B9C003B610023FB600023BB6000237B61DAE028
:101BAC007B69012202FA03F33B613A683B691340FB
:101BBC00FB60FA683B699A4240F0CA807B681A68FD
:101BCC007B695B00194603238B40DB431A407B681F
:101BDC001A607B69DA087B69D9087B68083153F88D
:101BEC0021107B6903F007039B0018460F238340E9
:101BFC00DB4319407B68083243F822107B689A68F3
:101C0C007B695B00194603238B40DB431A407B68DE
:101C1C009A607B685A687B69012101FA03F3DB4304
:101C2C001A407B685A607B68DA687B695B001946EE
:101C3C0003238B40DB431A407B68DA604A4A7B699A
:101C4C009B08023352F82330BB607B6903F003031B
:101C5C009B001A460F239340BA681340BB607B6805
:101C6C00424A934237D07B68414A934231D07B68D9
:101C7C00404A93422BD07B683F4A934225D07B68E5
:101C8C003E4A93421FD07B683D4A934219D07B68F1
:101C9C003C4A934213D07B683B4A93420DD07B68FD
:101CAC003A4A934207D07B68394A934201D10923BF
:101CBC0012E00A2310E008230EE007230CE00623B1
:101CCC000AE0052308E0042306E0032304E00223D2
:101CDC0002E0012300E000237A6902F00302920083
:101CEC0003FA02F2BB689A4232D17B6903F0030318
:101CFC009B001A460F239340BB601B487B699B08D3
:101D0C0019497A699208023251F82210BA68D24302
:101D1C000A40023340F823201E491E4B1A68FB6808
:101D2C00DB4313400B601B491A4B5A68FB68DB43BF
:101D3C0013404B601749174B9A68FB68DB43134001
:101D4C008B601449134BDA68FB68DB431340CB60A0
:101D5C007B6901337B617B690F2B7FF621AF1C37CD
:101D6C00BD465DF8047B704700380140000002401E
:101D7C000004024000080240000C02400010024027
:101D8C000014024000180240001C024000200240D7
:101D9C0000240240003C014080B485B000AF786064
:101DAC000B467B807B681A697B881340002B02D022
:101DBC000123FB7301E00023FB73FB7B18461437F4
:101DCC00BD465DF8047B704780B483B000AF78608B
:101DDC000B467B8013467B707B78002B03D07A8874
:101DEC007B689A6103E07B881A047B689A610C37E4
:101DFC00BD465DF8047B704780B483B000AF78605B
:101E0C000B467B807B685A697B885A407B685A6199
:101E1C000C37BD465DF8047B704700BF80B485B0BD
:101E2C0000AF78600B467B804FF48033FB607A8880
:101E3C00FB681343FB60FA687B68DA617A887B681D
:101E4C00DA61FA687B68DA617B68DB69FB607B6866
:101E5C00DB6903F48033002B01D0002300E0012365
:101E6C0018461437BD465DF8047B704780B582B0C8
:101E7C0000AF0346FB80084B5A69FB881340002BCC
:101E8C0006D0054AFB885361FB88184600F006F81B
:101E9C000837BD4680BD00BF003C014080B483B014
:101EAC0000AF0346FB800C37BD465DF8047B7047E2
:101EBC0080B483B000AF786002E07B68013B7B604C
:101ECC007B68002BF9D10C37BD465DF8047B70475D
:101EDC0080B586B000AF07F1100007F10C0107F1D7
:101EEC0008023B1DFEF74EFAFEF786FA0720FEF7B6
:101EFC0001FC0346002B03D011480721FEF7E6FB3B
:101F0C000620FEF7F7FB0346002B03D00C480621F6
:101F1C00FEF7DCFB0520FEF7EDFB0346002B0AD099
:101F2C0007480521FEF7D2FB0346002B03D0FEF732
:101F3C00B3FB0346FB75FEF7EBFA1837BD4680BDC5
:101F4C000C50004080B588B002AF352000F02CFD5D
:101F5C0002201F490822FFF78DFB0C201D49082287
:101F6C00FFF788FB01200E211B4AFFF73DFB0120E8
:101F7C000D21194AFFF738FB0123009317484FF442
:101F8C00165100220023FEF703FB012300930023CC
:101F9C0001931248002100220023FEF7C5FA00230A
:101FAC007B614820FEF764FB07F10C0007F1080188
:101FBC003A1D3B46FEF7E6F90520FEF79BFB034670
:101FCC00002B03D0FEF768FB0346FB74E9E700BF68
:101FDC00000C024000080240001802400050004073
:101FEC0080B500AF124A124B1B6843F0010313601B
:101FFC000F4B00229A600E4A0D4B1B6823F0847322
:10200C0023F4803313600A4B0A4A5A60084A084B7F
:10201C001B6823F480231360054B0022DA6000F068
:10202C0089F800F00BF8044B4FF000629A6080BD09
:10203C00003802401030002400ED00E080B487B07E
:10204C0000AF00233B6100237B610223FB60002374
:10205C00BB6002237B60324B9B6803F00C033B613B
:10206C003B69042B07D0082B09D0002B3FD12D4BFB
:10207C002D4A1A603FE02B4B2C4A1A603BE0284B50
:10208C005B6803F480039B0DBB60254B5B6803F01E
:10209C003F037B60BB68002B0DD0244A7B68B2FBEE
:1020AC00F3F21F4B596847F6C0730B409B0903FBB7
:1020BC0002F37B610CE01C4A7B68B2FBF3F2184B19
:1020CC00596847F6C0730B409B0903FB02F37B6115
:1020DC00134B5B6803F440331B0C01335B00FB6058
:1020EC007A69FB68B2FBF3F30E4A136003E00D4B05
:1020FC000D4A1A6000BF0A4B9B6803F0F0031B09E2
:10210C000B4AD35CDBB23B61064B1A683B6922FA83
:10211C0003F3044A13601C37BD465DF8047B70471B
:10212C0000380240000000200024F40000127A0065
:10213C000400002080B483B000AF00237B60002338
:10214C003B60434A424B1B6843F480331360404B63
:10215C001B6803F400333B607B6801337B603B6896
:10216C00002B04D17B6841F288329342EFD1384B7B
:10217C001B6803F40033002B02D001233B6001E009
:10218C0000233B603B68012B5CD1314A304B1B6C0C
:10219C0043F0805313642F4A2E4B1B6843F4404387
:1021AC0013602B4A2A4B9B689360294A284B9B68E7
:1021BC0043F400439360264A254B9B6843F4A05399
:1021CC009360234B244A5A60214A214B1B6843F0ED
:1021DC008073136000BF1E4B1B6803F00073002B51
:1021EC00F9D01C4A1B4B1B6843F48033136000BFAF
:1021FC00184B5B6803F48033002BF9D0154A154B50
:10220C001B6843F40033136000BF124B5B6803F48C
:10221C000033002BF9D0114B40F205721A600C4AB6
:10222C000B4B9B6823F003039360094A084B9B6894
:10223C0043F00203936000BF054B9B6803F00C0353
:10224C00082BF9D10C37BD465DF8047B704700BFF5
:10225C000038024000700040085A4007003C024021
:10226C0080B500AF0B4A0B4B1B6843F40073136033
:10227C00084A084B1B6843F480631360032000F08A
:10228C006DFB0F2000F040F800F032F800231846E8
:10229C0080BD00BF003C024080B500AF134B4FF037
:1022AC00FF321A62114B00221A62104B4FF0FF32B0
:1022BC005A620E4B00225A620C4B4FF0FF321A61DD
:1022CC000A4B00221A61094B4FF0FF325A61074B3F
:1022DC0000225A61054B4FF0FF329A61034B0022EA
:1022EC009A6100F00BF80023184680BD00380240BC
:1022FC0080B400AFBD465DF8047B704780B400AF7E
:10230C00BD465DF8047B704780B582B000AF786045
:10231C00FEF74CFF0246094BA3FB02239B09184610
:10232C0000F064FB4FF0FF307968002200F020FBD6
:10233C00002318460837BD4680BD00BFD34D621040
:10234C0080B400AF044B1B680133034A1360BD46D5
:10235C005DF8047B704700BF5C04002080B400AFC4
:10236C00034B1B681846BD465DF8047B704700BFE5
:10237C005C04002080B584B000AF78600023FB6063
:10238C00FFF7ECFFF86000BFFFF7E8FF0246FB68C1
:10239C00D21A7B689A42F7D31037BD4680BD00BF76
:1023AC0080B400AF044A044B1B6823F00203136093
:1023BC00BD465DF8047B704710E000E080B400AFD0
:1023CC00044A044B1B6843F002031360BD465DF8DE
:1023DC00047B704710E000E080B400AF024B18465D
:1023EC00BD465DF8047B70470000030180B400AF6C
:1023FC00034B1B681B0C1846BD465DF8047B7047ED
:10240C00002004E080B400AF044B1B68C3F30B0343
:10241C001846BD465DF8047B704700BF002004E001
:10242C0080B400AF044A044B5B6843F00103536073
:10243C00BD465DF8047B7047002004E080B400AF1B
:10244C00044A044B5B6823F001035360BD465DF8FE
:10245C00047B7047002004E080B400AF044A044BB6
:10246C005B6843F002035360BD465DF8047B704724
:10247C00002004E080B400AF044A044B5B6823F0F6
:10248C0002035360BD465DF8047B7047002004E0F6
:10249C0080B400AF044A044B5B6843F00403536000
:1024AC00BD465DF8047B7047002004E080B400AFAB
:1024BC00044A044B5B6823F004035360BD465DF88B
:1024CC00047B7047002004E080B485B000AF01238A
:1024DC00FB60FB6893FAA3F3BB60BB687B607B6813
:1024EC00B3FA83F33B603B68DBB29B001A46054BA7
:1024FC0013441A46012313601437BD465DF8047B60
:10250C00704700BF0004274280B485B000AF0123A0
:10251C00FB60FB6893FAA3F3BB60BB687B607B68D2
:10252C00B3FA83F33B603B68DBB29B001A46054B66
:10253C0013441A46002313601437BD465DF8047B20
:10254C00704700BF0004274280B485B000AF4FF441
:10255C008073FB60FB6893FAA3F3BB60BB687B6082
:10256C007B68B3FA83F33B603B68DBB29B0003F1FF
:10257C00844303F51C131A46012313601437BD461C
:10258C005DF8047B704700BF80B485B000AF4FF49A
:10259C008073FB60FB6893FAA3F3BB60BB687B6042
:1025AC007B68B3FA83F33B603B68DBB29B0003F1BF
:1025BC00844303F51C131A46002313601437BD46DD
:1025CC005DF8047B704700BF80B485B000AF7860C5
:1025DC007B6803F00703FB600C4BDB68BB60BA68DD
:1025EC004FF6FF031340BB60FB681A02BB68134332
:1025FC0043F0BF6343F40033BB60044ABB68D36051
:10260C001437BD465DF8047B704700BF00ED00E059
:10261C0080B400AF044BDB6803F4E0631B0A18467C
:10262C00BD465DF8047B704700ED00E080B483B0DC
:10263C0000AF0346FB71084997F907305B09FA793B
:10264C0002F01F02012000FA02F241F823200C379D
:10265C00BD465DF8047B704700E100E080B483B0B8
:10266C0000AF0346FB71094997F907305B09FA790A
:10267C0002F01F02012000FA02F2203341F823205D
:10268C000C37BD465DF8047B704700BF00E100E0ED
:10269C0080B483B000AF0346FB710C4A97F9073046
:1026AC005B09403352F82330FA7902F01F02012102
:1026BC0001FA02F21340002B01D0012300E00023A9
:1026CC0018460C37BD465DF8047B704700E100E00E
:1026DC0080B483B000AF0346FB71094997F907300A
:1026EC005B09FA7902F01F02012000FA02F2403372
:1026FC0041F823200C37BD465DF8047B704700BFC2
:10270C0000E100E080B483B000AF0346FB710949DF
:10271C0097F907305B09FA7902F01F02012000FAE1
:10272C0002F2603341F823200C37BD465DF8047B80
:10273C00704700BF00E100E080B483B000AF0346F7
:10274C00FB710C4A97F907305B09803352F8233040
:10275C00FA7902F01F02012101FA02F21340002B58
:10276C0001D0012300E0002318460C37BD465DF86C
:10277C00047B704700E100E080B483B000AF0346F7
:10278C003960FB7197F90730002B0BDA0D49FB7997
:10279C0003F00F03043B3A68D2B21201D2B20B44DD
:1027AC001A7609E0084997F907303A68D2B2120153
:1027BC00D2B20B4483F800230C37BD465DF8047B82
:1027CC00704700BF00ED00E000E100E080B483B092
:1027DC0000AF0346FB7197F90730002B0ADA0D4A5C
:1027EC00FB7903F00F03043B13441B7EDBB21B0984
:1027FC00DBB208E0084A97F90730134493F800332A
:10280C00DBB21B09DBB218460C37BD465DF8047B06
:10281C00704700BF00ED00E000E100E080B489B03B
:10282C0000AFF860B9607A60FB6803F00703FB61E6
:10283C00FB69C3F10703042B28BF0423BB61FB69AD
:10284C000433062B02D9FB69033B00E000237B61B8
:10285C00BB69012202FA03F3013B1A46BB681A401A
:10286C007B699A407B69012101FA03F3013B19460C
:10287C007B680B40134318462437BD465DF8047B38
:10288C00704700BF80B489B000AFF860B9607A605F
:10289C003B60BB6803F00703FB61FB69C3F10703F3
:1028AC00042B28BF0423BB61FB690433062B02D91C
:1028BC00FB69033B00E000237B617B69FA6822FA29
:1028CC0003F3BA69012101FA02F2013A1A407B685A
:1028DC001A607B69012202FA03F3013B1A46FB687A
:1028EC001A403B681A602437BD465DF8047B70477C
:1028FC0080B400AFBFF34F8F0549054BDB6803F481
:10290C00E062044B1343CB60BFF34F8FFEE700BF75
:10291C0000ED00E00400FA0580B582B000AF7860ED
:10292C007B68013BB3F1807F01D301230FE00A4A9E
:10293C007B68013B53604FF0FF300F21FFF71CFF0A
:10294C00054B00229A60044B07221A60002318469C
:10295C000837BD4680BD00BF10E000E080B582B0F6
:10296C0000AF78607868FFF72FFE0837BD4680BD52
:10297C0080B586B000AF0346B9607A60FB73002364
:10298C007B61FFF745FE78617869B9687A68FFF773
:10299C0045FF024697F90F3018461146FFF7ECFE3B
:1029AC001837BD4680BD00BF80B582B000AF03466E
:1029BC00FB7197F907301846FFF738FE0837BD460C
:1029CC0080BD00BF80B582B000AF0346FB7197F9A4
:1029DC0007301846FFF742FE0837BD4680BD00BFE2
:1029EC0080B500AFFFF784FF80BD00BF80B582B01B
:1029FC0000AF78607868FFF78FFF034618460837FA
:102A0C00BD4680BD80B500AFFFF702FE03461846F9
:102A1C0080BD00BF80B584B000AFB9607A603B6008
:102A2C000346FB7397F90F301846FFF7CFFE0346AA
:102A3C001846B9687A683B68FFF724FF1037BD4623
:102A4C0080BD00BF80B582B000AF0346FB7197F923
:102A5C0007301846FFF73CFE0837BD4680BD00BF67
:102A6C0080B582B000AF0346FB7197F9073018466A
:102A7C00FFF70EFE034618460837BD4680BD00BF63
:102A8C0080B582B000AF0346FB7197F9073018464A
:102A9C00FFF738FE0837BD4680BD00BF80B582B059
:102AAC0000AF0346FB7197F907301846FFF744FE59
:102ABC00034618460837BD4680BD00BF80B483B0BE
:102ACC0000AF78607B68042B06D1094A084B1B6861
:102ADC0043F00403136005E0054A054B1B6823F023
:102AEC00040313600C37BD465DF8047B704700BFD0
:102AFC0010E000E080B500AF00F002F880BD00BF30
:102B0C0080B400AFBD465DF8047B704780F0004098
:102B1C0002E000BF81F0004142001FBF5FEA4103A9
:102B2C0092EA030F7FEA226C7FEA236C6AD04FEAA9
:102B3C001262D2EB1363C1BFD218414048404140EE
:102B4C00B8BF5B42192B88BF704710F0004F40F4A0
:102B5C00000020F07F4018BF404211F0004F41F4BC
:102B6C00000121F07F4118BF494292EA030F3FD088
:102B7C00A2F1010241FA03FC10EB0C00C3F120039B
:102B8C0001FA03F100F0004302D5494260EB40002A
:102B9C00B0F5000F13D3B0F1807F06D340084FEA95
:102BAC00310102F10102FE2A51D2B1F1004F40EB8A
:102BBC00C25008BF20F0010040EA030070474900F2
:102BCC0040EB000010F4000FA2F10102EDD1B0FABD
:102BDC0080FCACF1080CB2EB0C0200FA0CF0AABFB2
:102BEC0000EBC25052421843BCBFD0401843704750
:102BFC0092F0000F81F4000106BF80F40000013256
:102C0C00013BB5E74FEA41037FEA226C18BF7FEA2C
:102C1C00236C21D092EA030F04D092F0000F08BF6E
:102C2C000846704790EA010F1CBF0020704712F055
:102C3C007F4F04D1400028BF40F00040704712F194
:102C4C0000723CBF00F50000704700F0004343F0F9
:102C5C00FE4040F4000070477FEA226216BF08462F
:102C6C007FEA23630146420206BF5FEA412390EAF2
:102C7C00010F40F4800070474FF0000304E000BFE8
:102C8C0010F0004348BF40425FEA000C08BF704799
:102C9C0043F0964301464FF000001CE050EA01025D
:102CAC0008BF70474FF000030AE000BF50EA010272
:102CBC0008BF704711F0004302D5404261EB41015F
:102CCC005FEA010C02BF84460146002043F0B64384
:102CDC0008BFA3F18053A3F50003BCFA8CF2083AA9
:102CEC00A3EBC25310DB01FA02FC634400FA02FCB2
:102CFC00C2F12002BCF1004F20FA02F243EB0200B9
:102D0C0008BF20F00100704702F1200201FA02FC1A
:102D1C00C2F1200250EA4C0021FA02F243EB02000D
:102D2C0008BF20EADC7070474FF0FF0C1CEAD05251
:102D3C001EBF1CEAD15392EA0C0F93EA0C0F6FD012
:102D4C001A4480EA010C400218BF5FEA41211ED0F0
:102D5C004FF0006343EA501043EA5111A0FB0131DC
:102D6C000CF00040B1F5000F3EBF490041EAD371B1
:102D7C005B0040EA010062F17F02FD2A1DD8B3F12D
:102D8C00004F40EBC25008BF20F00100704790F09C
:102D9C00000F0CF0004C08BF49024CEA502040EAEE
:102DAC0051207F3AC2BFD2F1FF0340EAC2507047B4
:102DBC0040F400004FF00003013A5DDC12F1190FF2
:102DCC00DCBF00F000407047C2F10002410021FA64
:102DDC0002F1C2F1200200FA02FC5FEA310040F17C
:102DEC00000053EA4C0308BF20EADC70704792F0F5
:102DFC00000F00F0004C02BF400010F4000F013A2D
:102E0C00F9D040EA0C0093F0000F01F0004C02BF27
:102E1C00490011F4000F013BF9D041EA0C018FE796
:102E2C000CEAD15392EA0C0F18BF93EA0C0F0AD09C
:102E3C0030F0004C18BF31F0004CD8D180EA0100C2
:102E4C0000F00040704790F0000F17BF90F0004F5B
:102E5C00084691F0000F91F0004F14D092EA0C0F3D
:102E6C0001D142020FD193EA0C0F03D14B0218BFD0
:102E7C00084608D180EA010000F0004040F0FE4016
:102E8C0040F40000704740F0FE4040F440007047B2
:102E9C004FF0FF0C1CEAD0521EBF1CEAD15392EA31
:102EAC000C0F93EA0C0F69D0A2EB030280EA010C21
:102EBC0049024FEA402037D04FF0805343EA1111BA
:102ECC0043EA10130CF000408B4238BF5B0042F118
:102EDC007D024FF4000C8B4224BF5B1A40EA0C00BD
:102EEC00B3EB510F24BFA3EB510340EA5C00B3EBEF
:102EFC00910F24BFA3EB910340EA9C00B3EBD10FDD
:102F0C0024BFA3EBD10340EADC001B0118BF5FEA2E
:102F1C001C1CE0D1FD2A3FF650AF8B4240EBC25057
:102F2C0008BF20F0010070470CF0004C4CEA502018
:102F3C007F32C2BFD2F1FF0340EAC250704740F467
:102F4C0000004FF00003013A37E792F0000F00F059
:102F5C00004C02BF400010F4000F013AF9D040EAD7
:102F6C000C0093F0000F01F0004C02BF490011F46B
:102F7C00000F013BF9D041EA0C0195E70CEAD15363
:102F8C0092EA0C0F08D142027FF47DAF93EA0C0F4A
:102F9C007FF470AF084676E793EA0C0F04D14B022E
:102FAC003FF44CAF08466EE730F0004C18BF31F0E0
:102FBC00004CCAD130F000427FF45CAF31F00043DA
:102FCC007FF43CAF5FE700BF42000ED2B2F1FE4F80
:102FDC000BD34FF09E03B3EB126209D44FEA0023DC
:102FEC0043F0004323FA02F070474FF000007047A3
:102FFC0012F1610F01D1420202D14FF0FF30704744
:10300C004FF00000704700BF70B50F4E0F4D761B90
:10301C00B61018BF002405D0013455F8043B98476E
:10302C00A642F9D10A4E0B4D761B00F0B7F8B6103C
:10303C0018BF002406D0013455F8043B9847A6422B
:10304C00F9D170BD70BD00BF2832000828320008CD
:10305C003032000828320008024B13B1024800F04D
:10306C0005B87047000000008530000801460020BC
:10307C000246034600F016B838B5084B084DED1A59
:10308C00AC1018BFED1805D0013C55F8043D98471D
:10309C00002CF9D1BDE8384000F086B83032000879
:1030AC00343200082DE9F047254C2568D5F8484105
:1030BC000646884692469946CCB360681F2818DCB1
:1030CC00431C7EB104EB80050121C5F888A0D4F81F
:1030DC00887101FA00F21743022EC4F88871C5F802
:1030EC0008911ED00230636044F820800020BDE8B7
:1030FC00F087144B03B34FF4C870AFF30080044651
:10310C00D0B1D5F84831002780E88800C5F848418F
:10311C0038460123C4F88871C4F88C71002EE1D0B4
:10312C00D0E7D4F88C110A43C4F88C21DAE705F502
:10313C00A674C5F84841C0E74FF0FF30BDE8F087F2
:10314C002432000800000000DFF834D0002103E036
:10315C000C4B5B58435004310B480C4B42189A42B1
:10316C00F6D30B4A02E0002342F8043B094B9A4287
:10317C00F9D3FEF735FFFFF747FFFEF7E3FE704785
:10318C00FFFF022034320008000000204004002021
:10319C004004002060040020FEE70000F8B500BFEA
:1031AC00F8BC08BC9E467047F8B500BFF8BC08BC1C
:0431BC009E46704774
:1031C00001000000010000000100000001000000FB
:1031D00001000000010000000100000001000000EB
:1031E00002000000040000000800000010000000C1
:1031F000400000008000000000010000000200000C
:1032000002000000040000000600000008000000AA
:10321000000000000102030401020304060708097C
:0832200043000000180000202B
:0832280065300008D101000827
:04323000AD010008E4
:103234000095BA0A00000000000000000102030427
:103244000607080900000000000000000403002035
:103254006C030020D40300200000000000000000E4
:10326400000000000000000000000000000000005A
:1032740000000000000000000000000020320008F0
:10328400000000000000000000000000000000003A
:10329400000000000000000000000000000000002A
:1032A400000000000000000000000000000000001A
:1032B400000000000000000000000000000000000A
:1032C40000000000000000000000000000000000FA
:1032D40000000000000000000000000000000000EA
:1032E40000000000000000000000000000000000DA
:1032F40001000000000000000E33CDAB34126DE677
:10330400ECDE05000B0000000000000000000000DF
:1033140000000000000000000000000000000000A9
:103324000000000000000000000000000000000099
:103334000000000000000000000000000000000089
:103344000000000000000000000000000000000079
:040000050800315569
:00000001FF
